{"abi":[{"type":"function","name":"supplyAndBorrow","inputs":[{"name":"supplyAmount","type":"uint256","internalType":"uint256"},{"name":"borrowAmount","type":"uint256","internalType":"uint256"}],"outputs":[],"stateMutability":"nonpayable"}],"bytecode":{"object":"0x60806040527382af49447d8a07e3bd95bd0d56f35241523fbab15f5f6101000a81548173ffffffffffffffffffffffffffffffffffffffff021916908373ffffffffffffffffffffffffffffffffffffffff16021790555073af88d065e77c8cc2239327c5edb3a432268e583160015f6101000a81548173ffffffffffffffffffffffffffffffffffffffff021916908373ffffffffffffffffffffffffffffffffffffffff16021790555073794a61358d6845594f94dc1db02a252b5b4814ad60025f6101000a81548173ffffffffffffffffffffffffffffffffffffffff021916908373ffffffffffffffffffffffffffffffffffffffff16021790555034801561010a575f5ffd5b50610734806101185f395ff3fe608060405234801561000f575f5ffd5b5060043610610029575f3560e01c80638fc9f8801461002d575b5f5ffd5b61004760048036038101906100429190610480565b610049565b005b5f5f9054906101000a900473ffffffffffffffffffffffffffffffffffffffff1673ffffffffffffffffffffffffffffffffffffffff166323b872dd3330856040518463ffffffff1660e01b81526004016100a69392919061050c565b6020604051808303815f875af11580156100c2573d5f5f3e3d5ffd5b505050506040513d601f19601f820116820180604052508101906100e69190610576565b505f5f9054906101000a900473ffffffffffffffffffffffffffffffffffffffff1673ffffffffffffffffffffffffffffffffffffffff1663095ea7b360025f9054906101000a900473ffffffffffffffffffffffffffffffffffffffff16846040518363ffffffff1660e01b81526004016101639291906105a1565b6020604051808303815f875af115801561017f573d5f5f3e3d5ffd5b505050506040513d601f19601f820116820180604052508101906101a39190610576565b5060025f9054906101000a900473ffffffffffffffffffffffffffffffffffffffff1673ffffffffffffffffffffffffffffffffffffffff166379ce00295f5f9054906101000a900473ffffffffffffffffffffffffffffffffffffffff16845f6040518463ffffffff1660e01b815260040161022293929190610617565b5f604051808303815f87803b158015610239575f5ffd5b505af115801561024b573d5f5f3e3d5ffd5b5050505060025f9054906101000a900473ffffffffffffffffffffffffffffffffffffffff1673ffffffffffffffffffffffffffffffffffffffff16635a3b74b95f5f9054906101000a900473ffffffffffffffffffffffffffffffffffffffff1660016040518363ffffffff1660e01b81526004016102cc92919061065b565b5f604051808303815f87803b1580156102e3575f5ffd5b505af11580156102f5573d5f5f3e3d5ffd5b5050505060025f9054906101000a900473ffffffffffffffffffffffffffffffffffffffff1673ffffffffffffffffffffffffffffffffffffffff1663c858f5f960015f9054906101000a900473ffffffffffffffffffffffffffffffffffffffff168360025f6040518563ffffffff1660e01b815260040161037b94939291906106bb565b5f604051808303815f87803b158015610392575f5ffd5b505af11580156103a4573d5f5f3e3d5ffd5b5050505060015f9054906101000a900473ffffffffffffffffffffffffffffffffffffffff1673ffffffffffffffffffffffffffffffffffffffff1663a9059cbb33836040518363ffffffff1660e01b81526004016104049291906105a1565b6020604051808303815f875af1158015610420573d5f5f3e3d5ffd5b505050506040513d601f19601f820116820180604052508101906104449190610576565b505050565b5f5ffd5b5f819050919050565b61045f8161044d565b8114610469575f5ffd5b50565b5f8135905061047a81610456565b92915050565b5f5f6040838503121561049657610495610449565b5b5f6104a38582860161046c565b92505060206104b48582860161046c565b9150509250929050565b5f73ffffffffffffffffffffffffffffffffffffffff82169050919050565b5f6104e7826104be565b9050919050565b6104f7816104dd565b82525050565b6105068161044d565b82525050565b5f60608201905061051f5f8301866104ee565b61052c60208301856104ee565b61053960408301846104fd565b949350505050565b5f8115159050919050565b61055581610541565b811461055f575f5ffd5b50565b5f815190506105708161054c565b92915050565b5f6020828403121561058b5761058a610449565b5b5f61059884828501610562565b91505092915050565b5f6040820190506105b45f8301856104ee565b6105c160208301846104fd565b9392505050565b5f819050919050565b5f61ffff82169050919050565b5f819050919050565b5f6106016105fc6105f7846105c8565b6105de565b6105d1565b9050919050565b610611816105e7565b82525050565b5f60608201905061062a5f8301866104ee565b61063760208301856104fd565b6106446040830184610608565b949350505050565b61065581610541565b82525050565b5f60408201905061066e5f8301856104ee565b61067b602083018461064c565b9392505050565b5f819050919050565b5f6106a56106a061069b84610682565b6105de565b61044d565b9050919050565b6106b58161068b565b82525050565b5f6080820190506106ce5f8301876104ee565b6106db60208301866104fd565b6106e860408301856106ac565b6106f56060830184610608565b9594505050505056fea26469706673582212208c5e490b5c5cbdf5be3ddc998b0a5406f4f6e40521127d63bb0c6d0770bc9b6e64736f6c634300081d0033","linkReferences":{}},"methodIdentifiers":{"supplyAndBorrow(uint256,uint256)":"8fc9f880"},"id":20}