{"abi":[{"type":"function","name":"supplyAndBorrow","inputs":[{"name":"supplyAmount","type":"uint256","internalType":"uint256"},{"name":"borrowAmount","type":"uint256","internalType":"uint256"}],"outputs":[],"stateMutability":"nonpayable"}],"bytecode":{"object":"0x60806040527382af49447d8a07e3bd95bd0d56f35241523fbab15f5f6101000a81548173ffffffffffffffffffffffffffffffffffffffff021916908373ffffffffffffffffffffffffffffffffffffffff16021790555073af88d065e77c8cc2239327c5edb3a432268e583160015f6101000a81548173ffffffffffffffffffffffffffffffffffffffff021916908373ffffffffffffffffffffffffffffffffffffffff16021790555073794a61358d6845594f94dc1db02a252b5b4814ad60025f6101000a81548173ffffffffffffffffffffffffffffffffffffffff021916908373ffffffffffffffffffffffffffffffffffffffff16021790555034801561010a575f5ffd5b50610654806101185f395ff3fe608060405234801561000f575f5ffd5b5060043610610029575f3560e01c80638fc9f8801461002d575b5f5ffd5b610047600480360381019061004291906103d6565b610049565b005b5f5f9054906101000a900473ffffffffffffffffffffffffffffffffffffffff1673ffffffffffffffffffffffffffffffffffffffff166323b872dd3330856040518463ffffffff1660e01b81526004016100a693929190610462565b6020604051808303815f875af11580156100c2573d5f5f3e3d5ffd5b505050506040513d601f19601f820116820180604052508101906100e691906104cc565b505f5f9054906101000a900473ffffffffffffffffffffffffffffffffffffffff1673ffffffffffffffffffffffffffffffffffffffff1663095ea7b360025f9054906101000a900473ffffffffffffffffffffffffffffffffffffffff16846040518363ffffffff1660e01b81526004016101639291906104f7565b6020604051808303815f875af115801561017f573d5f5f3e3d5ffd5b505050506040513d601f19601f820116820180604052508101906101a391906104cc565b5060025f9054906101000a900473ffffffffffffffffffffffffffffffffffffffff1673ffffffffffffffffffffffffffffffffffffffff166379ce00295f5f9054906101000a900473ffffffffffffffffffffffffffffffffffffffff16845f6040518463ffffffff1660e01b81526004016102229392919061056d565b5f604051808303815f87803b158015610239575f5ffd5b505af115801561024b573d5f5f3e3d5ffd5b5050505060025f9054906101000a900473ffffffffffffffffffffffffffffffffffffffff1673ffffffffffffffffffffffffffffffffffffffff1663c858f5f960015f9054906101000a900473ffffffffffffffffffffffffffffffffffffffff168360025f6040518563ffffffff1660e01b81526004016102d194939291906105db565b5f604051808303815f87803b1580156102e8575f5ffd5b505af11580156102fa573d5f5f3e3d5ffd5b5050505060015f9054906101000a900473ffffffffffffffffffffffffffffffffffffffff1673ffffffffffffffffffffffffffffffffffffffff1663a9059cbb33836040518363ffffffff1660e01b815260040161035a9291906104f7565b6020604051808303815f875af1158015610376573d5f5f3e3d5ffd5b505050506040513d601f19601f8201168201806040525081019061039a91906104cc565b505050565b5f5ffd5b5f819050919050565b6103b5816103a3565b81146103bf575f5ffd5b50565b5f813590506103d0816103ac565b92915050565b5f5f604083850312156103ec576103eb61039f565b5b5f6103f9858286016103c2565b925050602061040a858286016103c2565b9150509250929050565b5f73ffffffffffffffffffffffffffffffffffffffff82169050919050565b5f61043d82610414565b9050919050565b61044d81610433565b82525050565b61045c816103a3565b82525050565b5f6060820190506104755f830186610444565b6104826020830185610444565b61048f6040830184610453565b949350505050565b5f8115159050919050565b6104ab81610497565b81146104b5575f5ffd5b50565b5f815190506104c6816104a2565b92915050565b5f602082840312156104e1576104e061039f565b5b5f6104ee848285016104b8565b91505092915050565b5f60408201905061050a5f830185610444565b6105176020830184610453565b9392505050565b5f819050919050565b5f61ffff82169050919050565b5f819050919050565b5f61055761055261054d8461051e565b610534565b610527565b9050919050565b6105678161053d565b82525050565b5f6060820190506105805f830186610444565b61058d6020830185610453565b61059a604083018461055e565b949350505050565b5f819050919050565b5f6105c56105c06105bb846105a2565b610534565b6103a3565b9050919050565b6105d5816105ab565b82525050565b5f6080820190506105ee5f830187610444565b6105fb6020830186610453565b61060860408301856105cc565b610615606083018461055e565b9594505050505056fea26469706673582212206bb956c1879eca53a4c1796e1ec7e49a09b37a7ec3875db8066709f48a1bae0a64736f6c634300081d0033","linkReferences":{}},"methodIdentifiers":{"supplyAndBorrow(uint256,uint256)":"8fc9f880"},"id":1}